:100000000A128A11EE2D00308A000408840A820741
:100010000034203420342034203420342034203460
:100020002034203420342034203420342034203430
:100030002034003445344534503452344F344D3438
:100040002034563441344C3455344534003445342E
:100050004534503452344F344D34203454344534C4
:1000600053345434003443342034573452344934F4
:080070005434453444340034DB
:100BDC00FA01FB0183010A128A115B2F7A10013092
:100BEC000A128A11C6260A128A110800F6007A1413
:100BFC0076080A128A11C6260A128A110800831274
:100C0C00031388150D30F100FB30F000F00B0C2EA7
:100C1C00F10B0C2E112E8312031388110800F10016
:100C2C006400831603178C181C2E1D2E162E1E2ED8
:100C3C007108831203178D003F30F0007008831683
:100C4C0003178C050C1403100C1803140030031834
:100C5C000130831203170C08332E0800F7007A14A6
:100C6C00482E770884000A128A1103200A128A116E
:100C7C000A128A11C6260A128A110130F600760869
:100C8C00F707482E770884000A128A1103200A12EB
:100C9C008A110038031D532E542E372E552E080062
:100CAC00F200582E831603178C185D2E5E2E582ECC
:100CBC005F2E7208831203178D0070088C003F3072
:100CCC00F1007108831603178C05831203130310AC
:100CDC008B1F712E722E732E03148B138316031716
:100CEC000C1555308D00AA308D008C140C1183120C
:100CFC000313031C822E832E862E8B17862E862E94
:100D0C000800F700B72E7A107608803E0A128A1176
:100D1C00C6260A128A11C52E7A107608C03E0A120F
:100D2C008A11C6260A128A11C52E7A107608943EAC
:100D3C000A128A11C6260A128A11C52E7A10760852
:100D4C00D43E0A128A11C6260A128A11C52E7A10AE
:100D5C007608D43E0A128A11C6260A128A11C52EAA
:100D6C00C52E7708013A0319892E033A0319922EDE
:100D7C00013A03199B2E073A0319A42EAD2E080035
:100D8C00F5007508F2007208F4007508F039F200ED
:100D9C007208F5008312031308080F3975048800D4
:100DAC007A18D92EDA2EDC2E0811DE2E0815DE2E3E
:100DBC000A128A1105260A128A117408F2007208A6
:100DCC00F5007508F20003300310F20DFF3E031D11
:100DDC00EA2E0310720DF3007308F5007508F03954
:100DEC00F2007208F5008312031308080F3975041A
:100DFC0088007A18022F032F052F0811072F0815CA
:100E0C00072F0A128A1105260A128A110800831666
:100E1C00031388010330F8008A30F7005630F600CF
:100E2C00F60B162FF70B162FF80B162F1D2F831200
:100E3C00031308117A10881108080F39303888000C
:100E4C000A128A1105260A128A1183120313080842
:100E5C000F39203888000A128A1105260A128A11C5
:100E6C0028300A128A11C6260A128A1108300A1270
:100E7C008A11C6260A128A1101300A128A11C62654
:100E8C000A128A1106300A128A11C6260A128A110F
:100E9C0080300A128A11C6260A128A110C300A12E4
:100EAC008A11C6260A128A110800831603138601BA
:100EBC0083120313860118308316031387008312E1
:100ECC00031387010A128A110D270A128A11F601DF
:100EDC0001300A128A1187260A128A111F300A124F
:100EEC008A1134260A128A117B2FF60101300A125C
:100EFC008A1187260A128A111F300A128A11342687
:100F0C000A128A1183120313871D8D2F8E2FB42F73
:100F1C00902F902F871D932F942F902F952F433028
:100F2C00F9007908F00001300A128A1156260A12CB
:100F3C008A11F6010314F60D02300A128A11872663
:100F4C000A128A112B300A128A1134260A128A11BB
:100F5C000A128A11F4250A128A11B42F8312031370
:100F6C00071EB92FBA2F7B2F0A128A11F4250A12E9
:100F7C008A11C02F83120313071EC52FC62FC02F33
:100F8C00C72F01300A128A1115260A128A11F9008C
:100F9C007908FB00F60102300A128A1187260A1220
:100FAC008A1101300A128A1134260A128A1104306D
:100FBC00F9007908F60002300A128A1187260A1203
:100FCC008A117B080A128A11FC250A128A11F60171
:100FDC0001300A128A1187260A128A1112300A125B
:100FEC008A1134260A128A117B2F7B2F7B2F0A122F
:040FFC008A1100282E
:00000001FF
