:100000000A128A11D52E00308A000408840A820759
:100010000034473445344334203457346134793420
:1000200061346E34613464340034573445344C34B4
:0A00300043344F344D34453400349E
:100DAA00F80183010A128A110C2F83120313881582
:100DBA000330F1009730F000F00BE12EF10BE12E39
:100DCA00E62E8312031388110800F7007814FE2E0A
:100DDA00770884000A128A1103200A128A110A1259
:100DEA008A116F270A128A110130F6007608F7076E
:100DFA00FE2E770884000A128A1103200A128A1129
:100E0A000038031D092F0A2FED2E0B2F08000A1296
:100E1A008A11B6270A128A11F60101300A128A11BA
:100E2A0030270A128A1101300A128A11EA260A1296
:100E3A008A11F60102300A128A1130270A128A111F
:100E4A000D300A128A11EA260A128A112C2F2C2F27
:100E5A000A128A110028F700602F78107608803E5F
:100E6A000A128A116F270A128A116E2F78107608D1
:100E7A00C03E0A128A116F270A128A116E2F781041
:100E8A007608943E0A128A116F270A128A116E2F67
:100E9A0078107608D43E0A128A116F270A128A112C
:100EAA006E2F78107608D43E0A128A116F270A121A
:100EBA008A116E2F6E2F7708013A0319322F033ADF
:100ECA0003193B2F013A0319442F073A03194D2FEF
:100EDA00562F0800F5007508F2007208F40075082C
:100EEA00F039F2007208F5008312031308080F396B
:100EFA00750488007818822F832F852F0811872F71
:100F0A000815872F0A128A11DA260A128A1174081A
:100F1A00F2007208F5007508F20003300310F20DB2
:100F2A00FF3E031D932F0310720DF3007308F500A3
:100F3A007508F039F2007208F500831203130808E5
:100F4A000F39750488007818AB2FAC2FAE2F081113
:100F5A00B02F0815B02F0A128A11DA260A128A113E
:100F6A0008008316031388018230F700DD30F6008B
:100F7A00F60BBD2FF70BBD2FC22F831203130811D7
:100F8A007810881108080F39303888000A128A1137
:100F9A00DA260A128A118312031308080F39203835
:100FAA0088000A128A11DA260A128A1128300A12CD
:100FBA008A116F270A128A1108300A128A116F27BA
:100FCA000A128A1101300A128A116F270A128A112B
:100FDA0006300A128A116F270A128A1180300A1201
:100FEA008A116F270A128A110C300A128A116F2786
:060FFA000A128A11080032
:00000001FF
