:100000000A128A11242E00308A000408840A82070A
:100010000034733465347234693461346C342034A0
:10002000643461347434613400347334653472344C
:08003000693461346C340034C2
:100C4800FC0183010A128A119F2F7C1001300A12BD
:100C58008A110E270A128A110800F6007C147608F9
:100C68000A128A110E270A128A110800F0003C2E77
:100C7800831203130C1E412E422E3C2E432E700865
:100C8800990008008312031388150330F100973088
:100C9800F000F00B4D2EF10B4D2E522E8312031344
:100CA80088110800572E831203138C1E5C2E5D2EAC
:100CB800572E981C602E612E642E18121816642E5A
:100CC8001A08662E0800831603131813181218152D
:100CD8008312031398171813181670088316031332
:100CE8009900831203138C12831603139816831228
:100CF80003130C12831603130C128C120800F7004E
:100D08007C14972E770884000A128A1103200A128D
:100D18008A110A128A110E270A128A110130F60066
:100D28007608F707972E770884000A128A1103209D
:100D38000A128A110038031DA22EA32E862EA42E75
:100D48000800F300C12E730884000A128A110320D8
:100D58000A128A110A128A113A260A128A110130D5
:100D6800F1007108F3071430F2007930F100F10B4B
:100D7800BB2EF20BBB2EC02EC12E730884000A12A4
:100D88008A1103200A128A110038031DCC2ECD2E99
:100D9800A72ECE2E0800F700FF2E7C107608803E86
:100DA8000A128A110E270A128A110D2F7C10760852
:100DB800C03E0A128A110E270A128A110D2F7C10C2
:100DC8007608943E0A128A110E270A128A110D2FEC
:100DD8007C107608D43E0A128A110E270A128A114C
:100DE8000D2F7C107608D43E0A128A110E270A129B
:100DF8008A110D2F0D2F7708013A0319D12E033AC6
:100E08000319DA2E013A0319E32E073A0319EC2ED7
:100E1800F52E0800F5007508F2007208F400750850
:100E2800F039F2007208F5008312031308080F392D
:100E3800750488007C18212F222F242F0811262FB3
:100E48000815262F0A128A1146260A128A117408D2
:100E5800F2007208F5007508F20003300310F20D75
:100E6800FF3E031D322F0310720DF3007308F500C7
:100E78007508F039F2007208F500831203130808A8
:100E88000F39750488007C184A2F4B2F4D2F0811F5
:100E98004F2F08154F2F0A128A1146260A128A1157
:100EA80008008316031388018230F700DD30F6004E
:100EB800F60B5C2FF70B5C2F612F831203130811BD
:100EC8007C10881108080F39303888000A128A11F6
:100ED80046260A128A118312031308080F3920388C
:100EE80088000A128A1146260A128A1128300A1224
:100EF8008A110E270A128A1108300A128A110E273F
:100F08000A128A1101300A128A110E270A128A114E
:100F180006300A128A110E270A128A1180300A1224
:100F28008A110E270A128A110C300A128A110E270A
:100F38000A128A1108001930F0000030F1000A1274
:100F48008A1167260A128A110D300A128A11A526FB
:100F58000A128A110A128A1155270A128A110A12CC
:100F68008A1129260A128A1101300A128A11832647
:100F78000A128A11FA01FB01C12F7A08303E0A12BF
:100F88008A113A260A128A110A128A1156260A1258
:100F98008A11F8007808F900640079080A128A11A1
:100FA8003A260A128A11F60102300A128A11CF264D
:100FB8000A128A1179080A128A1131260A128A112C
:100FC8007A08303E0A128A1131260A128A11013033
:100FD800FA070318FB0A0030FB0709307A067B047E
:100FE800031DF72FF82FC12FFA01FB01C12FC12FC5
:080FF800C12F0A128A11002822
:00000001FF
