:0800000000000A128A11B82F5A
:100F700083010A128A11BC2FF201F30183160313B5
:100F8000880183120313880104308316031387003A
:100F9000831203138701CC2F83120313871DD12FD4
:100FA000D22FCC2FD42FD42F8719D72FD82FD42F8F
:100FB000D92F0130F100720ADF2F0310F10DFF3E2F
:100FC000031DDD2F710888000130F2070318F30AB2
:100FD0000030F3077308803AFF0080307F02031D62
:100FE000F32F08307202031CF62FF72FCC2FF201DB
:100FF000F301CC2FCC2FCC2FCC2F0A128A11012831
:00000001FF
