:060000000A128A117F2F95
:100EFE0083010A128A11A42FF1000430F000700849
:100F0E00F2005330F0007008F3008E2F8E2F013058
:100F1E00F302031D932F942F8E2F952F0130F20283
:100F2E00031D9A2F9B2F882F9C2F0130F102031D3A
:100F3E00A12FA22F842FA32F08008316031388013D
:100F4E00831203138801AB2F0814FF300A128A1183
:100F5E0083270A128A118312031308108814FF3094
:100F6E000A128A1183270A128A1183120313881018
:100F7E000815FF300A128A1183270A128A1183126A
:100F8E00031308118815FF300A128A1183270A12DB
:100F9E008A118312031388110816FF300A128A1160
:100FAE0083270A128A118312031308128816FF3040
:100FBE000A128A1183270A128A11831203138812C6
:100FCE000817FF300A128A1183270A128A11831218
:100FDE00031308138817FF300A128A1183270A1287
:100FEE008A11831203138813AB2FAB2F0A128A11A7
:020FFE000028C9
:00000001FF
