:100000000A128A114F2AFF1B0D2883137F188317AA
:100010000008840A0319FF0A080000308A00040857
:10002000840A8207003420342034203420342034E1
:100030002034203420342034203420342034203420
:1000400020340034543445344D3450344534523423
:1000500041345434553452344534003420346334FC
:0200600000346A
:100468004130831203139F008030831603139F00CB
:10047800FF30850008008312031388150D30F10042
:10048800FB30F000F00B462AF10B462A4B2A831268
:10049800031388110800CC01BE01BF01C001C101CE
:1004A800C201C301C401C501C601C701C801C90110
:1004B800CA01CB0183010A128A114B2E831203133E
:1004C8002A08F0002B08F100F2018E30FC007C08AD
:1004D800F300F4010A128A11A6240A128A1170087C
:1004E80083120313AA007108AB007208AC007C2ABF
:1004F8000800F1000430F0007008F200FA30F00053
:100508007008F300882A882A0130F302031D8D2A17
:100518008E2A882A8F2A0130F202031D942A952AEE
:10052800822A962A0130F102031D9B2A9C2A7E2AE0
:100538009D2A0800831203134C14B72A7708FF007A
:10054800760884000A128A1103200A128A110A12F4
:100558008A117A230A128A110130F6070318F70A5A
:100568000030F707B72A770883120313FF007608CD
:1005780084000A128A1103200A128A110038031D06
:10058800C62AC72AA22AC82A080083120313A90068
:100598002908FD007D08A800A51FD32AD42AE52A2A
:1005A8002D30FD00290884007D0883138000013068
:1005B800FD007D08A907A409A509A40A0319A50A2D
:1005C800E52A2508F901F9072408F801F80727089A
:1005D800FB01FB072608FA01FA0729080A128A1103
:1005E80021250A128A11F82A0800FA00FB01FC01E9
:1005F8007A08F60002300310F60DFF3E031DFF2AAD
:100608000310760D831203131F049F0032300A1261
:100618008A117D220A128A11831203131F15142BC3
:100628001F19172B182B142B192B1E08F600F7016E
:100638007608FB007708FC00831603131E08F600F3
:10064800F7017B08F900F80176087804FB007708C1
:100658007904FC007C08F501F5077B08F401F40730
:10066800352B08007108700403193B2B3C2B722BA7
:10067800F5010314F50D4C2B01300310F00DF10DAD
:10068800FF3E031D412B0130F4007408F5074C2B85
:10069800F11F4F2B502B402B522B522B71087302FA
:1006A800031D582B70087202031C5B2B5C2B632BF9
:1006B8007008F2027108031CF303F302632B013084
:1006C8000310F10CF00CFF3E031D642B0130F50202
:1006D800031D6F2B702B522B722B722B7308F10199
:1006E800F1077208F001F007792B0800F50075088A
:1006F800F2007208F4007508F039F2007208F5008B
:100708008312031308080F39750488004C188D2BC1
:100718008E2B902B0811922B0815922B0A128A11F6
:100728003F220A128A117408F2007208F50075084F
:10073800F20003300310F20DFF3E031D9E2B031041
:10074800720DF3007308F5007508F039F2007208AD
:10075800F5008312031308080F39750488004C1834
:10076800B62BB72BB92B0811BB2B0815BB2B0A12BC
:100778008A113F220A128A110800F700FB2B831204
:1007880003134C107608803E0A128A117A230A1243
:100798008A11092C831203134C107608C03E0A12E2
:1007A8008A117A230A128A11092C831203134C1016
:1007B8007608943E0A128A117A230A128A11092CA1
:1007C800831203134C107608D43E0A128A117A2336
:1007D8000A128A11092C831203134C107608D43E8E
:1007E8000A128A117A230A128A11092C092C77080D
:1007F800013A0319C32B033A0319CE2B013A031903
:10080800D92B073A0319E42BEF2B0800F501F60161
:10081800710870040319112C122C502CF7010314C1
:10082800F70D222C01300310F00DF10DFF3E031DD2
:10083800172C0130F4007408F707222CF11F252C1F
:10084800262C162C282C282C01300310F50DF60D1B
:10085800FF3E031D292C71087302031D352C7008F7
:100868007202031C382C392C412C7008F2027108D2
:10087800031CF303F3027514412C01300310F10C2F
:10088800F00CFF3E031D422C0130F702031D4D2CD6
:100898004E2C282C502C502C7608F101F1077508A5
:1008A800F001F007572C0800831603138801033062
:1008B800F8008A30F7005630F600F60B612CF70B7B
:1008C800612CF80B612C682C8312031308114C104F
:1008D800881108080F39303888000A128A113F2217
:1008E8000A128A118312031308080F392038880066
:1008F8000A128A113F220A128A1128300A128A1112
:100908007A230A128A1108300A128A117A230A12E3
:100918008A1101300A128A117A230A128A110630C2
:100928000A128A117A230A128A1180300A128A114D
:100938007A230A128A110C300A128A117A230A12AF
:100948008A1108007308031DAA2CB22C72087104BE
:100958007004031DB02CB12CC82CB22C0030F00050
:100968000030F1000030F200202D202DC82C01307D
:10097800F5007508F30701300310F20CF10CF00CC8
:10098800FF3E031DC02CC82CFE307205031DCD2C64
:10099800CE2CBB2CE62CE62C0130F5007508F307AD
:1009A8000130F007003003180130F1070030031858
:1009B8000130F20701300310F20CF10CF00CFF3E8D
:1009C800031DDF2CFF307205031DEB2CEC2CD02C03
:1009D800F92CF92C0130F30201300310F00DF10D60
:1009E800F20DFF3E031DF12CF92CF11FFC2CFD2C00
:1009F800EE2C7318002D012D072DFF30F0057F30E8
:100A0800F105FF30F2050310F30C7308F500F60149
:100A1800F70110300310F50DF60DF70DFF3E031D1D
:100A28000E2D7508F0047608F1047708F2047408AE
:100A3800031D1F2D202DF217080083120313A30096
:100A48007908A101A1077808A001A0072B2D7B0830
:100A5800F101F1077A08F001F0072108F301F30723
:100A68002008F201F2070A128A110A240A128A11CE
:100A7800710883120313A101A1077008A001A00740
:100A88000130FC007C08A30721082004031D4D2D1C
:100A98004E2D2B2D4F2D2308840083138001013008
:100AA800A302562D7B08F101F1077A08F001F0073F
:100AB8007908F301F3077808F201F2070A128A119C
:100AC80036230A128A117008FC007C08831203136B
:100AD800A2007B08F101F1077A08F001F007790814
:100AE800F301F3077808F201F2070A128A110A24BF
:100AF8000A128A117108F901F9077008F801F80754
:100B08000A30831203132202031C8B2D8C2D902D87
:100B18000730FC007C08A2073030FC007C08A207E4
:100B28002208FC00230884007C088313800001301D
:100B3800A30279087804031DA22DA32D562DA42DF8
:100B48000800780883120313A0007908A1007A0826
:100B5800A2000310210D220DA3002308A900A90853
:100B6800031DB72DB82DC22D0030FB000030FA0050
:100B78000030F9000030F8004A2E4A2E7808A0000C
:100B88007908A1007A08A20017300310A20CA10C62
:100B9800A00CFF3E031DC92D2008A3002308A400B4
:100BA800F917FF30F805FF30F9050030FA05780825
:100BB800A5007908A6007A08A700A8018E30A90226
:100BC800A91FE72DE82D0D2E2908803A8F3E03181E
:100BD800EE2DEF2DFA2D0030FB000030FA0000302A
:100BE800F9000030F8004A2E4A2EFA2D0130031081
:100BF800A80CA70CA60CA50CFF3E031DFB2D01306D
:100C0800A0002008A907031D0A2E0B2EFA2D312E4D
:100C1800312E18302902031C122E132E2A2E0030D2
:100C2800FB000030FA000030F9000030F8004A2ECE
:100C38004A2E2A2E0130A0000310A50DA60DA70DDF
:100C4800A80DA00B202E0130A9022A2EA908031DE9
:100C58002E2E2F2E1E2E312E312E2408031D352E1A
:100C6800412EA509A609A709A809A50A0319A60AD4
:100C78000319A70A0319A80A412E2808FB00270808
:100C8800FA002608F9002508F8004A2E08000A127A
:100C98008A1134220A128A110A128A1158240A1255
:100CA8008A11F60101300A128A11C1230A128A1127
:100CB8001030F6008030F7000A128A119E220A12BC
:100CC8008A11662E00300A128A11F9220A128A1134
:100CD800750883120313CB01CB077408CA01CA072E
:100CE8004B08A501A5074A08A401A4070A30A600D5
:100CF8000030A70046300A128A11C9220A128A1146
:100D0800063083120313BD003D08F60002300A12B4
:100D18008A11C1230A128A114630F6000030F70002
:100D28000A128A119E220A128A11831203134B088F
:100D3800AB01AB074A08AA01AA070A128A11622264
:100D48000A128A11831203132A08B0002B08B10073
:100D58002C08B2000030AD00FA30AE003E30AF00D3
:100D68000A128A1112270A128A11831203132D08F4
:100D7800F8002E08F9002F08FA000A128A11A52592
:100D88000A128A11790883120313C301C30778086A
:100D9800C201C2074308A501A5074208A401A40788
:100DA8000A30A6000030A70046300A128A11C9226C
:100DB8000A128A11F60102300A128A11C1230A1294
:100DC8008A114630F6000030F7000A128A119E2276
:100DD8000A128A111C30F6008030F7000A128A11B4
:100DE8009E220A128A11C8300A128A117D220A121A
:100DF8008A11F60102300A128A11C1230A128A11D5
:100E08000130F6008030F7000A128A119E220A1279
:100E18008A11662E662E0A128A110028831203137D
:100E28002D08B3002E08B4002F08B5000310340DA8
:100E3800350DB6003608B700B708031D242F252F37
:100E48002D2F0030AD000030AE000030AF00FF2F76
:100E5800FF2F3008B3003108B4003208B500031082
:100E6800340D350DB6003608BC00BC08031D3D2FF7
:100E78003E2F462F0030AD000030AE000030AF00EE
:100E8800FF2FFF2F3C087B3EB3003308B7072D0820
:100E9800B3002E08B4002F08B50010300310B50CAD
:100EA800B40CB30CFF3E031D522F3308B6003608AE
:100EB800BC003008B3003108B4003208B500103067
:100EC8000310B50CB40CB30CFF3E031D642F33089C
:100ED800B6003608BC068030B3003308BC05AE1730
:100EE800B117FF30B005FF30B1050030B205003052
:100EF800B8000030B9000030BA000730B30033083A
:100F0800BB00862F2D1C892F8A2F9B2F3008B807EE
:100F1800310803110318310A0319932FB90732084E
:100F280003110318320A03199A2FBA079B2F0130AD
:100F38000310AF0CAE0CAD0CFF3E031D9C2F01300F
:100F48000310B00DB10DB20DFF3E031DA42F0130EB
:100F5800BB02031DB02FB12F862FB22F0930B3006B
:100F68003308BB00B72F2D1CBA2FBB2FCC2F30084E
:100F7800B807310803110318310A0319C42FB90738
:100F8800320803110318320A0319CB2FBA07CC2FE2
:100F980001300310AF0CAE0CAD0CFF3E031DCD2F7E
:100FA80001300310BA0CB90CB80CFF3E031DD52F45
:100FB8000130BB02031DE12FE22FB72FE32F3808C2
:100FC800F0003908F1003A08F2003708B300330896
:100FD800F3003C08B4003408F4000A128A11A6246D
:100FE8000A128A11700883120313AD007108AE004B
:080FF8007208AF00FF2F080092
:00000001FF
