:060000000A128A119E2F76
:100F3C00F401F50183010A128A11C52FF100043066
:100F4C00F0007008F2005330F0007008F300AF2F7F
:100F5C00AF2F0130F302031DB42FB52FAF2FB62FD7
:100F6C000130F202031DBB2FBC2FA92FBD2F013066
:100F7C00F102031DC22FC32FA52FC42F08000F3061
:100F8C00831603138700831203138701831603133D
:100F9C008801831203138801D32F83120313871D37
:100FAC00D82FD92FED2FDB2FDB2F8719DE2FDF2F3B
:100FBC00DB2FE02F1E300A128A11A4270A128A1185
:100FCC000130F4070318F50A0030F507ED2F023055
:100FDC0074067504031DF32FF42FD32FF401F501C0
:100FEC000130831203138806D32FD32FD32F0A1269
:040FFC008A1100282E
:00000001FF
