:100000000A128A11092D00308A000408840A820726
:1000100000344E3455344D34423445345234203457
:100020004C344F3443344B340034763461346C34C4
:10003000693464342034703461347334733400347C
:10004000773472346F346E346734203470346134F2
:0600500073347334003428
:1009DC00E1341034F6007C1476080A128A11BD2515
:1009EC000A128A1108008312031388150330F100D0
:1009FC009730F000F00B002DF10B002D052D83121C
:100A0C00031388110800FC01F901FA01FB01A00194
:100A1C00A1010A128A11EE240A128A11A2000A12EA
:100A2C008A11EF240A128A11A30083010A128A1177
:100A3C00EF2EF601F7012F2D62300A128A113B2599
:100A4C000A128A110130F6070318F70A0030F7076B
:100A5C002F2D75087702031D352D74087602031CA3
:100A6C00382D392D222D3A2D0800F1000430F000DC
:100A7C007008F2005330F0007008F300462D462D3C
:100A8C000130F302031D4B2D4C2D462D4D2D013005
:100A9C00F202031D522D532D402D542D0130F10225
:100AAC00031D592D5A2D3C2D5B2D0800F7007C148D
:100ABC00702D770884000A128A1103200A128A11F9
:100ACC000A128A11BD250A128A110130F600760825
:100ADC00F707702D770884000A128A1103200A1276
:100AEC008A110038031D7B2D7C2D5F2D7D2D080078
:100AFC00F700AE2D7C107608803E0A128A11BD25B7
:100B0C000A128A11BC2D7C107608C03E0A128A117A
:100B1C00BD250A128A11BC2D7C107608943E0A124F
:100B2C008A11BD250A128A11BC2D7C107608D43E80
:100B3C000A128A11BD250A128A11BC2D7C10760866
:100B4C00D43E0A128A11BD250A128A11BC2DBC2D65
:100B5C007708013A0319802D033A0319892D013ABC
:100B6C000319922D073A03199B2DA42D0800F500AB
:100B7C007508F2007208F4007508F039F20072087A
:100B8C00F5008312031308080F39750488007C18CC
:100B9C00D02DD12DD32D0811D52D0815D52D0A12F8
:100BAC008A11F9240A128A117408F2007208F500ED
:100BBC007508F20003300310F20DFF3E031DE12D0A
:100BCC000310720DF3007308F5007508F039F2008C
:100BDC007208F5008312031308080F397504880096
:100BEC007C18F92DFA2DFC2D0811FE2D0815FE2D63
:100BFC000A128A11F9240A128A11080083160313A7
:100C0C0088018230F700DD30F600F60B0B2EF70B67
:100C1C000B2E102E8312031308117C108811080858
:100C2C000F39303888000A128A11F9240A128A11F5
:100C3C008312031308080F39203888000A128A110E
:100C4C00F9240A128A1128300A128A11BD250A12B7
:100C5C008A1108300A128A11BD250A128A11013034
:100C6C000A128A11BD250A128A1106300A128A113B
:100C7C00BD250A128A1180300A128A11BD250A126A
:100C8C008A110C300A128A11BD250A128A11080029
:100C9C008312031386138619542E552E5A2E86173B
:100CAC003730EE2EEE2E762E06195D2E5E2E632E2E
:100CBC0086173830EE2EEE2E762E8618662E672E80
:100CCC006C2E86173930EE2EEE2E762E06186F2EE1
:100CDC00702E762E86174130EE2EEE2E762E762E38
:100CEC008617061386197B2E7C2E812E0617343020
:100CFC00EE2EEE2E9D2E0619842E852E8A2E06178C
:100D0C003530EE2EEE2E9D2E86188D2E8E2E932E99
:100D1C0006173630EE2EEE2E9D2E0618962E972E9A
:100D2C009D2E06174230EE2EEE2E9D2E9D2E061772
:100D3C0086128619A22EA32EA82E86163130EE2EE0
:100D4C00EE2EC42E0619AB2EAC2EB12E86163230DA
:100D5C00EE2EEE2EC42E8618B42EB52EBA2E861676
:100D6C003330EE2EEE2EC42E0618BD2EBE2EC42E03
:100D7C0086164330EE2EEE2EC42EC42E8616061288
:100D8C008619C92ECA2ECF2E06162E30EE2EEE2E1A
:100D9C00EB2E0619D22ED32ED82E06163030EE2E70
:100DAC00EE2EEB2E8618DB2EDC2EE12E06162330D3
:100DBC00EE2EEE2EEB2E0618E42EE52EEB2E06165E
:100DCC004430EE2EEE2EEB2EEB2E06160030EE2ED1
:100DDC0008000F30831603138600FF3083120313B1
:100DEC0086008316031381130A128A1104260A1231
:100DFC008A11002FF60101300A128A117E250A127F
:100E0C008A1101300A128A115C250A128A11F60124
:100E1C0002300A128A117E250A128A11F901FA018E
:100E2C00172F0A128A114E260A128A11F800780816
:100E3C00FB00FB08031D232F242F292F2030F80043
:100E4C007808FB00BB2F7B08313A031D2E2F2F2F68
:100E5C00462F7908013EF9007A080318013E003E3E
:100E6C00FA00013083120313A0070318A10A003003
:100E7C00A1077B080A128A11F0240A128A11AF2FDB
:100E8C007B08323A031D4B2F4C2F632F7908143EED
:100E9C00F9007A080318013E003EFA000130831273
:100EAC000313A0070318A10A0030A1077B080A123C
:100EBC008A11F0240A128A11AF2F7B08333A031DD2
:100ECC00682F692F802F79082C3EF9007A080318B7
:100EDC00013E013EFA00013083120313A0070318F0
:100EEC00A10A0030A1077B080A128A11F0240A1209
:100EFC008A11AF2F7B08343A031D852F862F9D2F27
:100F0C007908A03EF9007A080318013E0F3EFA005A
:100F1C00013083120313A0070318A10A0030A107A4
:100F2C007B080A128A11F0240A128A11AF2F7B084F
:100F3C000A128A11F0240A128A1101308312031347
:100F4C00A0070318A10A0030A107AF2FAF2FAF2FB6
:100F5C00AF2F03308312031320062104031DB72F78
:100F6C00B82FBB2FC62FC62FBB2F0130F40000307B
:100F7C00F5000A128A111F250A128A11172F172F32
:100F8C007A08831203132306031DCE2F7908220639
:100F9C00031DD12FD22FEB2FF60102300A128A112A
:100FAC007E250A128A110D300A128A115C250A124A
:100FBC008A11F901FA010130F4000030F5000A122F
:100FCC008A111F250A128A11002FF60102300A120B
:100FDC008A117E250A128A1118300A128A115C2590
:100FEC000A128A11F901FA01002F002F002F0A12A0
:040FFC008A1100282E
:00000001FF
