:060000000A128A11B72F5D
:100F6E0083010A128A11BB2F831603138801831281
:100F7E0003138801C22F0A128A11CC270A128A1172
:100F8E00C22FC22F0A128A110028831203130814CB
:100F9E0037300A128A11DF270A128A1183120313BD
:100FAE00081037300A128A11DF270A128A11080038
:100FBE00F1000430F0007008F2005330F0007008B9
:100FCE00F300EA2FEA2F0130F302031DEF2FF02F6B
:100FDE00EA2FF12F0130F202031DF62FF72FE42F27
:100FEE00F82F0130F102031DFD2FFE2FE02FFF2FF2
:020FFE000800E9
:00000001FF
