:100000000A128A11D12CFF1B0D2883137F18831726
:100010000008840A0319FF0A080000308A00040857
:10002000840A8207003420342034203420342034E1
:100030002034203420342034203420342034203420
:100040002034003441344434433420345634413471
:080050004C34553445340034F2
:10098C004130831203139F008030831603139F00A2
:10099C00FF3085000800B001AA01AB01AC01AD012C
:1009AC00AE01AF0183010A128A11182F83120313AF
:1009BC0088150D30F100FB30F000F00BE32CF10B3F
:1009CC00E32CE82C8312031388110800F100043087
:1009DC00F0007008F200FA30F0007008F300F72C09
:1009EC00F72C0130F302031DFC2CFD2CF72CFE2CF4
:1009FC000130F202031D032D042DF12C052D0130C5
:100A0C00F102031D0A2D0B2DED2C0C2D0800831269
:100A1C0003133014262D7708FF00760884000A1281
:100A2C008A1103200A128A110A128A11EC250A1261
:100A3C008A110130F6070318F70A0030F707262D44
:100A4C00770883120313FF00760884000A128A11B8
:100A5C0003200A128A110038031D352D362D112D55
:100A6C00372D080083120313A9002908FD007D0807
:100A7C00A800A51F422D432D542D2D30FD00290813
:100A8C0084007D08831380000130FD007D08A907D8
:100A9C00A409A509A40A0319A50A542D2508F901CE
:100AAC00F9072408F801F8072708FB01FB072608BB
:100ABC00FA01FA0729080A128A117C270A128A11EC
:100ACC00672D0800FA00FB01FC01831203139F122F
:100ADC001F129F117A08F60002300310F60DFF3E2C
:100AEC00031D732D0310760D1F049F0032300A1264
:100AFC008A11EC240A128A11831203131F15862DF6
:100B0C001F19892D8A2D862D8B2D1E08F600F701B5
:100B1C007608FB007708FC00831603131E08F6000A
:100B2C00F7017B08F900F80176087804FB007708D8
:100B3C007904FC007C08F501F5077B08F401F40747
:100B4C00A72D0800710870040319AD2DAE2DE42DEE
:100B5C00F5010314F50DBE2D01300310F00DF10D50
:100B6C00FF3E031DB32D0130F4007408F507BE2DB4
:100B7C00F11FC12DC22DB22DC42DC42D71087302CD
:100B8C00031DCA2D70087202031CCD2DCE2DD52D40
:100B9C007008F2027108031CF303F302D52D013027
:100BAC000310F10CF00CFF3E031DD62D0130F502A5
:100BBC00031DE12DE22DC42DE42DE42D7308F1016C
:100BCC00F1077208F001F007EB2D0800F50075082D
:100BDC00F2007208F4007508F039F2007208F500A2
:100BEC008312031308080F39750488003018FF2D81
:100BFC00002E022E0811042E0815042E0A128A113A
:100C0C00DC240A128A117408F2007208F5007508C7
:100C1C00F20003300310F20DFF3E031D102E0310E3
:100C2C00720DF3007308F5007508F039F2007208C4
:100C3C00F5008312031308080F3975048800301867
:100C4C00282E292E2B2E08112D2E08152D2E0A128A
:100C5C008A11DC240A128A110800F7006D2E831207
:100C6C00031330107608803E0A128A11EC250A1202
:100C7C008A117B2E8312031330107608C03E0A12A1
:100C8C008A11EC250A128A117B2E83120313301061
:100C9C007608943E0A128A11EC250A128A117B2ED0
:100CAC008312031330107608D43E0A128A11EC25F5
:100CBC000A128A117B2E8312031330107608D43E4D
:100CCC000A128A11EC250A128A117B2E7B2E7708C8
:100CDC00013A0319352E033A0319402E013A031930
:100CEC004B2E073A0319562E612E0800F501F6011A
:100CFC00710870040319832E842EC22EF70103147D
:100D0C00F70D942E01300310F00DF10DFF3E031D75
:100D1C00892E0130F4007408F707942EF11F972EDA
:100D2C00982E882E9A2E9A2E01300310F50DF60D62
:100D3C00FF3E031D9B2E71087302031DA72E700826
:100D4C007202031CAA2EAB2EB32E7008F20271088D
:100D5C00031CF303F3027514B32E01300310F10CD2
:100D6C00F00CFF3E031DB42E0130F702031DBF2E05
:100D7C00C02E9A2EC22EC22E7608F101F1077508EC
:100D8C00F001F007C92E0800831603138801033005
:100D9C00F8008A30F7005630F600F60BD32EF70B1E
:100DAC00D32EF80BD32EDA2E831203130811301026
:100DBC00881108080F39303888000A128A11DC248F
:100DCC000A128A118312031308080F39203888007D
:100DDC000A128A11DC240A128A1128300A128A118A
:100DEC00EC250A128A1108300A128A11EC250A1213
:100DFC008A1101300A128A11EC250A128A11063066
:100E0C000A128A11EC250A128A1180300A128A11F0
:100E1C00EC250A128A110C300A128A11EC250A12DE
:100E2C008A1108000A128A11C6240A128A110A129F
:100E3C008A11CA260A128A11F60101300A128A1185
:100E4C0033260A128A111030F6008030F7000A128D
:100E5C008A110D250A128A11332F00300A128A11B9
:100E6C0068250A128A11750883120313AB01AB07AC
:100E7C007408AA01AA072B08A501A5072A08A40132
:100E8C00A4070A30A6000030A7002C300A128A11E1
:100E9C0038250A128A11F60102300A128A113326F9
:100EAC000A128A112C30F6000030F7000A128A114F
:100EBC000D250A128A11C8300A128A11EC240A1262
:100ECC008A11F60102300A128A1133260A128A118B
:100EDC000130F6008030F7000A128A110D250A1233
:100EEC008A11332F332F0A128A110028831203130D
:100EFC00A3007908A101A1077808A001A007862FFB
:100F0C007B08F101F1077A08F001F0072108F301E1
:100F1C00F3072008F201F2070A128A117C260A1242
:100F2C008A11710883120313A101A1077008A00193
:100F3C00A0070130FC007C08A30721082004031D36
:100F4C00A82FA92F862FAA2F230884008313800192
:100F5C000130A302B12F7B08F101F1077A08F001EF
:100F6C00F0077908F301F3077808F201F2070A1287
:100F7C008A11A8250A128A117008FC007C088312B9
:100F8C000313A2007B08F101F1077A08F001F007C6
:100F9C007908F301F3077808F201F2070A128A11B3
:100FAC007C260A128A117108F901F9077008F801F8
:100FBC00F8070A30831203132202031CE62FE72FD3
:100FCC00EB2F0730FC007C08A2073030FC007C08BB
:100FDC00A2072208FC00230884007C0883138000ED
:100FEC000130A30279087804031DFD2FFE2FB12FC9
:040FFC00FF2F0800BB
:00000001FF
