:060000000A128A11A62875
:10014C00FD01D80183010A128A11A62D7D110130FF
:10015C000A128A1128220A128A11080040308312CE
:10016C0003139F008930831603139F000800F600C9
:10017C007D1576080A128A1128220A128A110800A3
:10018C00831603131114CA281118CD28CE28CA2897
:10019C00CF280800831603131115D4281119D7285A
:1001AC00D828D428D9280800831603139114DE28E4
:1001BC001118E128E228DE28E32808008312031333
:1001CC008C11E8288C1DEB28EC28E828ED28080079
:1001DC008316031391161116F328111AF628F72813
:1001EC00F328F8280800F00070088312031393001A
:1001FC000A128A11E4200A128A11080083160313CA
:10020C0087150716283083120313940009308316C0
:10021C000313930008008312031388152130F10097
:10022C007630F000F00B1829F10B182964008312BA
:10023C000313881108008316031391150A128A11EF
:10024C00E4200A128A11831203131308F0007008B9
:10025C00F1007108312908000F3083120313970045
:10026C003F308316031392008312031395018316F8
:10027C000313071104308312031392000800F300D8
:10028C00F201731C4A294B2950297008F10071089E
:10029C00F20750290310F00D0310F30CF308031DA3
:1002AC005829592947295A2972085C2908008312B0
:1002BC0003132A08F0002B08F100F2018E30FC0029
:1002CC007C08F300F4010A128A1197230A128A118E
:1002DC00700883120313AA007108AB007208AC00FB
:1002EC0077290800F3000A128A11C6200A128A1113
:1002FC00D0300A128A11F9200A128A1173080A12D4
:10030C008A11F9200A128A110A128A11DA200A12A9
:10031C008A11D1300A128A11F9200A128A110A1292
:10032C008A1121210A128A11F2007208F4000A12B1
:10033C008A11EE200A128A110A128A11D0200A128E
:10034C008A117408A9290800F6007608F200023018
:10035C000310F20DFF3E031DAE290310720D403841
:10036C00831203139F000C131F140730F3007D300E
:10037C00F200F20BBF29F30BBF29831203131F15D5
:10038C00C7290C1FCA29CB29C7291F110730F30015
:10039C007D30F200F20BD029F30BD0298316031316
:1003AC001E08F200F301831203131E08F400F5017A
:1003BC007408F500F40172087404F00073087504F5
:1003CC00F100E8290800F700192A7D117608803E13
:1003DC000A128A1128220A128A11272A7D117608FC
:1003EC00C03E0A128A1128220A128A11272A7D116C
:1003FC007608943E0A128A1128220A128A11272A98
:10040C007D117608D43E0A128A1128220A128A110A
:10041C00272A7D117608D43E0A128A1128220A1244
:10042C008A11272A272A7708013A0319EB29033A5C
:10043C000319F429013A0319FD29073A0319062A6D
:10044C000F2A0800F5007508F2007208F400750810
:10045C00F039F2007208F5008312031308080F3903
:10046C00750488007D193B2A3C2A3E2A0811402A33
:10047C000815402A0A128A1111210A128A117408CD
:10048C00F2007208F5007508F20003300310F20D4B
:10049C00FF3E031D4C2A0310720DF3007308F50088
:1004AC007508F039F2007208F5008312031308087E
:1004BC000F39750488007D19642A652A672A08118A
:1004CC00692A0815692A0A128A1111210A128A113D
:1004DC0008008316031388010D30F800AF30F700C5
:1004EC00C130F600F60B782AF70B782AF80B782A2D
:1004FC0064008312031308117D11881108080F3949
:10050C00303888000A128A1111210A128A118312BA
:10051C00031308080F39203888000A128A11112198
:10052C000A128A1128300A128A1128220A128A11F8
:10053C0008300A128A1128220A128A1101300A1272
:10054C008A1128220A128A1106300A128A112822CC
:10055C000A128A1180300A128A1128220A128A1170
:10056C000C300A128A1128220A128A110800F6018C
:10057C00F31FC12AC22ACB2AF209F309F20A031982
:10058C00F30AF6010314F60DCB2AF11FCE2ACF2A5B
:10059C00D52AF009F109F00A0319F10AD52A7108D4
:1005AC0070040319DA2ADB2A112BF5010314F50D5B
:1005BC00EB2A01300310F00DF10DFF3E031DE02A74
:1005CC000130F4007408F507EB2AF11FEE2AEF2A2C
:1005DC00DF2AF12AF12A71087302031DF72A700829
:1005EC007202031CFA2AFB2A022B7008F202710811
:1005FC00031CF303F302022B01300310F10CF00C7B
:10060C00FF3E031D032B0130F502031D0E2B0F2B98
:10061C00F12A112B112B7608031D152B1B2BF2091C
:10062C00F309F20A0319F30A1B2B7308F101F10702
:10063C007208F001F007222B0800F601F11F272B9E
:10064C00282B312BF009F109F00A0319F10AF601F4
:10065C000314F60D312BF31F342B352B3F2BF209E2
:10066C00F309F20A0319F30A0130F4007408F606D0
:10067C003F2BF701F801710870040319462B472B27
:10068C00852BF5010314F50D572B01300310F00DDC
:10069C00F10DFF3E031D4C2B0130F4007408F507DF
:1006AC00572BF11F5A2B5B2B4B2B5D2B5D2B0130EA
:1006BC000310F70DF80DFF3E031D5E2B710873023E
:1006CC00031D6A2B70087202031C6D2B6E2B762B8C
:1006DC007008F2027108031CF303F3027714762BF3
:1006EC0001300310F10CF00CFF3E031D772B013091
:1006FC00F502031D822B832B5D2B852B852B760816
:10070C00031D892B8F2BF709F809F70A0319F80A2F
:10071C008F2B7808F101F1077708F001F007962B81
:10072C0008007308031D9B2BA32B72087104700423
:10073C00031DA12BA22BB92BA32B0030F0000030F2
:10074C00F1000030F200112C112CB92B0130F50006
:10075C007508F30701300310F20CF10CF00CFF3E9E
:10076C00031DB12BB92BFE307205031DBE2BBF2B05
:10077C00AC2BD72BD72B0130F5007508F3070130C4
:10078C00F007003003180130F10700300318013076
:10079C00F20701300310F20CF10CF00CFF3E031DBC
:1007AC00D02BFF307205031DDC2BDD2BC12BEA2B6C
:1007BC00EA2B0130F30201300310F00DF10DF20DB4
:1007CC00FF3E031DE22BEA2BF11FED2BEE2BDF2B53
:1007DC007318F12BF22BF82BFF30F0057F30F1055D
:1007EC00FF30F2050310F30C7308F500F601F70166
:1007FC0010300310F50DF60DF70DFF3E031DFF2B0A
:10080C007508F0047608F1047708F2047408031DE7
:10081C00102C112CF2170800780883120313A00077
:10082C007908A1007A08A2000310210D220DA30063
:10083C002308A900A908031D242C252C2F2C0030DB
:10084C00FB000030FA000030F9000030F800B72C43
:10085C00B72C7808A0007908A1007A08A2001730FC
:10086C000310A20CA10CA00CFF3E031D362C20087B
:10087C00A3002308A400F917FF30F805FF30F90591
:10088C000030FA057808A5007908A6007A08A700B8
:10089C00A8018E30A902A91F542C552C7A2C29089A
:1008AC00803A8F3E03185B2C5C2C672C0030FB00CD
:1008BC000030FA000030F9000030F800B72CB72CEB
:1008CC00672C01300310A80CA70CA60CA50CFF3E3E
:1008DC00031D682C0130A0002008A907031D772CEC
:1008EC00782C672C9E2C9E2C18302902031C7F2CF4
:1008FC00802C972C0030FB000030FA000030F900FF
:10090C000030F800B72CB72C972C0130A000031046
:10091C00A50DA60DA70DA80DA00B8D2C0130A902BD
:10092C00972CA908031D9B2C9C2C8B2C9E2C9E2C4D
:10093C002408031DA22CAE2CA509A609A709A809F9
:10094C00A50A0319A60A0319A70A0319A80AAE2CAB
:10095C002808FB002708FA002608F9002508F800EB
:10096C00B72C0800831203132D08B3002E08B40013
:10097C002F08B5000310340D350DB6003608B7003E
:10098C00B708031DCA2CCB2CD32C0030AD00003083
:10099C00AE000030AF00A52DA52D3008B3003108F6
:1009AC00B4003208B5000310340D350DB60036080E
:1009BC00BC00BC08031DE32CE42CEC2C0030AD0077
:1009CC000030AE000030AF00A52DA52D3C087B3EBD
:1009DC00B3003308B7072D08B3002E08B4002F0856
:1009EC00B50010300310B50CB40CB30CFF3E031D56
:1009FC00F82C3308B6003608BC003008B3003108B8
:100A0C00B4003208B50010300310B50CB40CB30CA4
:100A1C00FF3E031D0A2D3308B6003608BC06803095
:100A2C00B3003308BC05AE17B117FF30B005FF306B
:100A3C00B1050030B2050030B8000030B90000300C
:100A4C00BA000730B3003308BB002C2D2D1C2F2D02
:100A5C00302D412D3008B807310803110318310A25
:100A6C000319392DB907320803110318320A031977
:100A7C00402DBA07412D01300310AF0CAE0CAD0C5C
:100A8C00FF3E031D422D01300310B00DB10DB20D10
:100A9C00FF3E031D4A2D0130BB02031D562D572D61
:100AAC002C2D582D0930B3003308BB005D2D2D1CA7
:100ABC00602D612D722D3008B80731080311031811
:100ACC00310A03196A2DB907320803110318320AC7
:100ADC000319712DBA07722D01300310AF0CAE0C37
:100AEC00AD0CFF3E031D732D01300310BA0CB90C75
:100AFC00B80CFF3E031D7B2D0130BB02031D872D5F
:100B0C00882D5D2D892D3808F0003908F1003A0840
:100B1C00F2003708B3003308F3003C08B400340883
:100B2C00F4000A128A1197230A128A117008831290
:100B3C000313AD007108AE007208AF00A52D0800BC
:100B4C0083120313C001C101D401D501C201C30139
:100B5C008801831603130514851486010710871268
:100B6C000A128A116F220A128A110A128A11B420EF
:100B7C000A128A110A128A1104210A128A110A1203
:100B8C008A1132210A128A118312031307141A30A4
:100B9C00BF005E30BE008630BD00BD0BD32DBE0B3A
:100BAC00D32DBF0BD32D6400831203130710F60152
:100BBC0001300A128A11E9210A128A11E52D00303E
:100BCC000A128A11AA210A128A11710883120313BC
:100BDC00C501C5077008C401C40701300A128A1187
:100BEC00AA210A128A11710883120313C701C707BD
:100BFC007008C601C6074508AB01AB074408AA013B
:100C0C00AA070A128A115D210A128A118312031390
:100C1C002A08B0002B08B1002C08B200E830AD0057
:100C2C009F30AE003B30AF000A128A11B8240A1272
:100C3C008A11831203132D08F8002E08F9002F08CF
:100C4C00FA000A128A1112240A128A1178088312E5
:100C5C000313BD003D08CE004708AB01AB074608A7
:100C6C00AA01AA070A128A115D210A128A1183129B
:100C7C0003132A08B0002B08B1002C08B200E8308E
:100C8C00AD009F30AE003B30AF000A128A11B82481
:100C9C000A128A11831203132D08F8002E08F9008A
:100CAC002F08FA000A128A1112240A128A117808E3
:100CBC0083120313BD003D08D60002300A128A11BC
:100CCC0078210A128A1183120313BD003D08CF004C
:100CDC004F08BD0004300310BD0CFF3E031D712EE8
:100CEC003D080F39BE003E08C8004F080F39BD0043
:100CFC003D08C9000A30BD003D08F00048080A1242
:100D0C008A1145210A128A1183120313BE00490865
:100D1C003E07BF003F08D0000A30F0000030F10061
:100D2C005008BD00BE013D08F2003E08F3000A1257
:100D3C008A1123230A128A117008303E0A128A1172
:100D4C00BD200A128A110A30F0000030F100831223
:100D5C0003135008BD00BE013D08F2003E08F3002D
:100D6C000A128A11BD220A128A117008303E0A1228
:100D7C008A11BD200A128A113A300A128A11BD203A
:100D8C000A128A1101300A128A1178210A128A1168
:100D9C0083120313BD003D08D1005108BD0004307F
:100DAC000310BD0CFF3E031DD62E3D080F39BE00AF
:100DBC003E08CA0051080F39BD003D08CB000A306F
:100DCC00BD003D08F0004A080A128A1145210A129A
:100DDC008A1183120313BE004B083E07BF003F0865
:100DEC00D2000A30F0000030F1005208BD00BE0104
:100DFC003D08F2003E08F3000A128A1123230A125E
:100E0C008A117008303E0A128A11BD200A128A110A
:100E1C000A30F0000030F100831203135208BD00B9
:100E2C00BE013D08F2003E08F3000A128A11BD22F1
:100E3C000A128A117008303E0A128A11BD200A1259
:100E4C008A113A300A128A11BD200A128A11003016
:100E5C000A128A1178210A128A1183120313BD0017
:100E6C003D08D3005308BD0004300310BD0CFF3EF9
:100E7C00031D3B2F3D080F39BE003E08CC00530824
:100E8C000F39BD003D08CD000A30BD003D08F00013
:100E9C004C080A128A1145210A128A118312031373
:100EAC00BE004D083E07BF003F08D7000A30F000D7
:100EBC000030F1005708BD00BE013D08F2003E08AD
:100ECC00F3000A128A1123230A128A117008303E89
:100EDC000A128A11BD200A128A110A30F000003061
:100EEC00F100831203135708BD00BE013D08F20048
:100EFC003E08F3000A128A11BD220A128A117008E8
:100F0C00303E0A128A11BD200A128A110330831254
:100F1C0003134E02031C932F942FA02F5508540437
:100F2C00031D992F9A2FA02F06140130D4000030E6
:100F3C00D500B22F02304E020318A52FA62FB22FC8
:100F4C00013054065504031DAC2FAD2FB22F0610E3
:100F5C00D401D501B22FB22F0B305702031CB72F7F
:100F6C00B82FC02F153057020318BD2FBE2FC02F1E
:100F7C000714C22F0710C22F023056020318C72FB6
:100F8C00C82FCC2F871696309500D52F03305602DC
:100F9C00031CD12FD22FD52F9501D52FD52F1E3035
:100FAC005702031CDA2FDB2FE92F243057020318CA
:100FBC00E02FE12FE92F023056020318E62FE72F1E
:100FCC00E92F8712E92F1630BF009030BE007E301B
:100FDC00BD00BD0BEF2FBE0BEF2FBF0BEF2F64002F
:100FEC000A128A11AC200A128A11E52DE52D0A127B
:040FFC008A1100282E
:00000001FF
