:100000000A128A118B2D00308A000408840A8207A4
:0C00100000346134643463343A3400344A
:100B1600B00183010A128A11C52E403083120313D5
:100B26009F000930831603139F000800F0009B2DD9
:100B3600831203130C1EA02DA12D9B2D7008990066
:100B460008008316031318131812181583120313BB
:100B56009817181318167008831603139900831232
:100B660003138C12831603139816831203130C12A5
:100B7600831603130C128C1208000030F6000030A6
:100B8600F700D12D62300A128A11DC250A128A1169
:100B96000130F6070318F70A0030F70775087702E1
:100BA600031DD72D74087602031CDA2DDB2DC52D07
:100BB6000800F1000430F0007008F2005330F00035
:100BC6007008F300E62D0130F302031DEB2DEC2D2A
:100BD600E62D0130F202031DF12DF22DE12D01303B
:100BE600F102031DF72DF82DDD2D0800F300142E5C
:100BF600730884000A128A1103200A128A110A1243
:100C06008A1199250A128A110130F1007108F30739
:100C16001430F2007930F100F10B0F2EF20B0F2E8B
:100C2600142E730884000A128A1103200A128A11EC
:100C36000038031D1F2E202EFB2D08000030F40067
:100C46000030F500701C282E292E2F2E7208F4076E
:100C56000318F50A7308F50701300310F20DF30DBA
:100C6600FF3E031D302E01300310F10CF00CFF3E49
:100C7600031D372E71087004031D422E432E252EA8
:100C86007508F101F1077408F001F0070800F40097
:100C96007408F20002300310F20DFF3E031D4E2EC3
:100CA6000310720D4038831203139F000C131F1498
:100CB600F930F2006400F20B5D2E612E640083129F
:100CC60003131F15662E0C1F692E6A2E662E1F1122
:100CD600F930F2006400F20B6D2E712E640083125F
:100CE60003131E08F200F3017208F0007308F10006
:100CF60008000030FB000030FC007708760403197A
:100D0600852E862EBE2EFD010314FD0D952E013077
:100D16000310F60DF70DFF3E031D8B2E0130FA0072
:100D26007A08FD07F71F982E992E8A2E0130031098
:100D3600FB0DFC0DFF3E031D9A2E77087902031D5D
:100D4600A62E76087802031CA92EAA2EB12E7608A6
:100D5600F8027708031CF903F9027B14013003102B
:100D6600F70CF60CFF3E031DB22E0130FD02031DEB
:100D7600BD2EBE2E992E7C08F701F7077B08F601DB
:100D8600F60708001930F0000030F1000A128A1147
:100D9600A4250A128A110A128A1190250A128A11AA
:100DA60000300A128A114A260A128A117108831221
:100DB6000313A101A1077008A001A007E830F600FF
:100DC6000330F7002108F901F9072008F801F807B0
:100DD6000A128A117C260A128A11770883120313D3
:100DE600A301A3077608A201A2076430F60000302B
:100DF600F7002308F101F1072208F001F007E830B7
:100E0600F2000330F3000A128A1121260A128A110F
:100E1600700983120313AA007109AB00AA0A031909
:100E2600AB0A20082A07F80021080318210A2B0715
:100E3600F9000A128A117C260A128A11770883128F
:100E46000313A501A5077608A401A4070A30F60036
:100E56000030F7002308F101F1072208F001F0073E
:100E6600E830F2000330F3000A128A1121260A1232
:100E76008A11700883120313AA007108AB002508B3
:100E8600F101F1072408F001F0076430F2000030A8
:100E9600F3000A128A1121260A128A117008831297
:100EA60003132A07AC0071080318710A2B07AD005B
:100EB600AC09AD09AC0A0319AD0A20082C07F800E5
:100EC60021080318210A2D07F9000A128A117C2627
:100ED6000A128A11770883120313A701A707760857
:100EE600A601A6072308F101F1072208F001F00781
:100EF600E830F2000330F3000A128A1121260A12A2
:100F06008A11700883120313AA007108AB00250822
:100F1600F101F1072408F001F0076430F200003017
:100F2600F3000A128A1121260A128A117008831206
:100F360003132A07AC0071080318710A2B07AD00CA
:100F46002708F101F1072608F001F0070A30F20040
:100F56000030F3000A128A1121260A128A1170083B
:100F6600831203132C07AE0071080318710A2D07AC
:100F7600AF00AE09AF09AE0A0319AF0A20082E0763
:100F8600A80021080318210A2F07A90001300A1218
:100F96008A11F9250A128A11831203132208303E98
:100FA6000A128A1199250A128A1183120313240838
:100FB600303E0A128A1199250A128A1183120313E6
:100FC6002608303E0A128A1199250A128A118312BE
:100FD60003132808303E0A128A1199250A128A112B
:100FE6000130F4000030F5000A128A11C0250A12F9
:0A0FF6008A11D32E0A128A11002876
:00000001FF
