:060000000A128A116C2FA8
:100ED80083010A128A11912FF1000430F000700882
:100EE800F2005330F0007008F3007B2F7B2F0130A5
:100EF800F302031D802F812F7B2F822F0130F202F6
:100F0800031D872F882F752F892F0130F102031DAC
:100F18008E2F8F2F712F902F0800831603138601B1
:100F2800831203138601982F40308312031386001F
:100F3800C8300A128A1170270A128A11F9308312EE
:100F480003138600C8300A128A1170270A128A1100
:100F5800A430831203138600C8300A128A1170273E
:100F68000A128A11B030831203138600C8300A129D
:100F78008A1170270A128A11993083120313860086
:100F8800C8300A128A1170270A128A119230831205
:100F980003138600C8300A128A1170270A128A11B0
:100FA8008230831203138600C8300A128A11702710
:100FB8000A128A11F830831203138600C8300A1205
:100FC8008A1170270A128A11831203138601C83006
:100FD8000A128A1170270A128A1190308312031399
:100FE8008600C8300A128A1170270A128A11982FAF
:080FF800982F0A128A1100284B
:00000001FF
