:100000000A128A11D82D00308A000408840A820757
:10001000003470347234653473347334203474347F
:0E0020006834653420346B3465347934003430
:100BB000F901FA0183010A128A11122F791001300A
:100BC0000A128A1181260A128A110800F600791485
:100BD00076080A128A1181260A128A1108008312E5
:100BE000031388150330F1009730F000F00BF62D59
:100BF000F10BF62DFB2D8312031388110800F10071
:100C00000430F0007008F2005330F0007008F30078
:100C10000A2E0A2E0130F302031D0F2E102E0A2E6B
:100C2000112E0130F202031D162E172E042E182E3F
:100C30000130F102031D1D2E1E2E002E1F2E080056
:100C4000F7007914342E770884000A128A110320E1
:100C50000A128A110A128A1181260A128A11013097
:100C6000F6007608F707342E770884000A128A11F6
:100C700003200A128A110038031D3F2E402E232E16
:100C8000412E0800F700722E79107608803E0A1275
:100C90008A1181260A128A11802E79107608C03EA8
:100CA0000A128A1181260A128A11802E791076087A
:100CB000943E0A128A1181260A128A11802E791016
:100CC0007608D43E0A128A1181260A128A11802ED1
:100CD00079107608D43E0A128A1181260A128A11E6
:100CE000802E802E7708013A0319442E033A031907
:100CF0004D2E013A0319562E073A03195F2E682E1E
:100D00000800F5007508F2007208F4007508F03963
:100D1000F2007208F5008312031308080F397504F6
:100D200088007918942E952E972E0811992E081563
:100D3000992E0A128A11EF250A128A117408F200FC
:100D40007208F5007508F20003300310F20DFF3E43
:100D5000031DA52E0310720DF3007308F50075082E
:100D6000F039F2007208F5008312031308080F39F6
:100D7000750488007918BD2EBE2EC02E0811C22E13
:100D80000815C22E0A128A11EF250A128A110800CC
:100D90008316031388018230F700DD30F600F60B6E
:100DA000CF2EF70BCF2ED42E8312031308117910F8
:100DB000881108080F39303888000A128A11EF2587
:100DC0000A128A118312031308080F392038880089
:100DD0000A128A11EF250A128A1128300A128A1182
:100DE00081260A128A1108300A128A1181260A12F3
:100DF0008A1101300A128A1181260A128A110630DC
:100E00000A128A1181260A128A1180300A128A1166
:100E100081260A128A110C300A128A1181260A12BE
:100E20008A1108000F30831603138600FF308312E7
:100E3000031386008316031381130A128A11C8262E
:100E40000A128A11232FF60101300A128A11422652
:100E50000A128A1101300A128A1120260A128A11F6
:100E60000A128A115F270A128A11F8007808FA001C
:100E7000FA08031D3C2F3D2F422F2030F800780840
:100E8000FA00422FF60102300A128A1142260A1293
:100E90008A117A080A128A11E6250A128A11643028
:100EA0000A128A11FF250A128A110A128A11DE25F6
:100EB0000A128A11232F232F0A128A110028831263
:100EC000031386138619652F662F6B2F861737300D
:100ED000FF2FFF2F872F06196E2F6F2F742F861766
:100EE0003830FF2FFF2F872F8618772F782F7D2FF1
:100EF00086173930FF2FFF2F872F0618802F812F5D
:100F0000872F86174130FF2FFF2F872F872F8617B8
:100F1000061386198C2F8D2F922F06173430FF2F32
:100F2000FF2FAE2F0619952F962F9B2F06173530C2
:100F3000FF2FFF2FAE2F86189E2F9F2FA42F06174F
:100F40003630FF2FFF2FAE2F0618A72FA82FAE2F5A
:100F500006174230FF2FFF2FAE2FAE2F0617861237
:100F60008619B32FB42FB92F86163130FF2FFF2FDC
:100F7000D52F0619BC2FBD2FC22F86163230FF2F5A
:100F8000FF2FD52F8618C52FC62FCB2F86163330AF
:100F9000FF2FFF2FD52F0618CE2FCF2FD52F861638
:100FA0004330FF2FFF2FD52FD52F86160612861917
:100FB000DA2FDB2FE02F06162E30FF2FFF2FFC2F0E
:100FC0000619E32FE42FE92F06163030FF2FFF2FED
:100FD000FC2F8618EC2FED2FF22F06162330FF2F53
:100FE000FF2FFC2F0618F52FF62FFC2F0616443086
:100FF000FF2FFF2FFC2FFC2F06160030FF2F0800BD
:00000001FF
