:100000000A128A11072BFF1B0D2883137F188317F1
:100010000008840A0319FF0A080000308A00040857
:10002000840A8207003420342034203420342034E1
:100030002034203420342034203420342034203420
:100040002034003441344434433420345634413471
:0C0050004C345534453400345634003430
:1005D8004130831203139F008030831603139F005A
:1005E800FF30850008008312031388150D30F100D1
:1005F800FB30F000F00BFE2AF10BFE2A032B8312CE
:10060800031388110800C001B101B201B301B4019C
:10061800B501B601B701B801B901BA01BB01BC0106
:10062800BD01BE01BF0183010A128A112C2F83125A
:1006380003132008F0002108F100F2018E30A30016
:100648002308F300F4010A128A1189250A128A1173
:10065800700883120313A0007108A1007208A20099
:10066800352B0800F1000430F0007008F200FA3071
:10067800F0007008F300412B412B0130F302031DF9
:10068800462B472B412B482B0130F202031D4D2BE3
:100698004E2B3B2B4F2B0130F102031D542B552BB6
:1006A800372B562B0800F401F5015A2B701C5D2BD3
:1006B8005E2B642B7208F4070318F50A7308F50714
:1006C80001300310F20DF30DFF3E031D652B0130C1
:1006D8000310F10CF00CFF3E031D6C2B7108700425
:1006E800031D772B782B5A2B792B7508F101F1070D
:1006F8007408F001F007802B0800831203134014DC
:100708009A2B7708FF00760884000A128A110320C2
:100718000A128A110A128A115D240A128A110130FA
:10072800F6070318F70A0030F7079A2B77088312A1
:100738000313FF00760884000A128A1103200A12A4
:100748008A110038031DA92BAA2B852BAB2B080077
:1007580083120313AF002F08AD002D08AE00AA1FA7
:10076800B62BB72BC82B2D30AD002F0884002D08D1
:10077800831380000130AD002D08AF07A909AA092D
:10078800A90A0319AA0AC82B2A08A101A10729083E
:10079800A001A0072C08A301A3072B08A201A20708
:1007A8002F080A128A1104260A128A11DB2B080064
:1007B800FA00FB01FC017A08F60002300310F60D7E
:1007C800FF3E031DE22B0310760D831203131F0453
:1007D8009F0032300A128A1136230A128A118312B4
:1007E80003131F15F72B1F19FA2BFB2BF72BFC2BC9
:1007F8001E08F600F7017608FB007708FC00831650
:1008080003131E08F600F7017B08F900F8017608C3
:100818007804FB0077087904FC007C08F501F507EB
:100828007B08F401F407182C0800710870040319F8
:100838001E2C1F2C552CF5010314F50D2F2C0130FF
:100848000310F00DF10DFF3E031D242C0130F400C0
:100858007408F5072F2CF11F322C332C232C352C40
:10086800352C71087302031D3B2C70087202031C9F
:100878003E2C3F2C462C7008F2027108031CF3032F
:10088800F302462C01300310F10CF00CFF3E031D5F
:10089800472C0130F502031D522C532C352C552CB6
:1008A800552C7308F101F1077208F001F0075C2C70
:1008B8000800F5007508F2007208F4007508F039B0
:1008C800F2007208F5008312031308080F39750443
:1008D80088004018702C712C732C0811752C081581
:1008E800752C0A128A11F7220A128A117408F2006A
:1008F8007208F5007508F20003300310F20DFF3E90
:10090800031D812C0310720DF3007308F5007508A0
:10091800F039F2007208F5008312031308080F3942
:10092800750488004018992C9A2C9C2C08119E2C30
:1009380008159E2C0A128A11F7220A128A11080039
:10094800F700DE2C8312031340107608803E0A124B
:100958008A115D240A128A11EC2C831203134010A9
:100968007608C03E0A128A115D240A128A11EC2CFC
:100978008312031340107608943E0A128A115D24EC
:100988000A128A11EC2C8312031340107608D43E05
:100998000A128A115D240A128A11EC2C831203139D
:1009A80040107608D43E0A128A115D240A128A1170
:1009B800EC2CEC2C7708013A0319A62C033A0319FE
:1009C800B12C013A0319BC2C073A0319C72CD22CB5
:1009D8000800FB01FC01770876040319F42CF52CB8
:1009E800332DFD010314FD0D052D01300310F60D07
:1009F800F70DFF3E031DFA2C0130FA007A08FD07B7
:100A0800052DF71F082D092DF92C0B2D0B2D013065
:100A18000310FB0DFC0DFF3E031D0C2D770879021A
:100A2800031D182D76087802031C1B2D1C2D242D60
:100A38007608F8027708031CF903F9027B14242DC1
:100A480001300310F70CF60CFF3E031D252D013075
:100A5800FD02031D302D312D0B2D332D332D7C0838
:100A6800F701F7077B08F601F6073A2D0800831609
:100A7800031388010330F8008A30F7005630F60077
:100A8800F60B442DF70B442DF80B442D4B2D8312F8
:100A9800031308114010881108080F3930388800EE
:100AA8000A128A11F7220A128A11831203130808FC
:100AB8000F39203888000A128A11F7220A128A117F
:100AC80028300A128A115D240A128A1108300A1283
:100AD8008A115D240A128A1101300A128A115D24D2
:100AE8000A128A1106300A128A115D240A128A1122
:100AF80080300A128A115D240A128A110C300A12F7
:100B08008A115D240A128A1108007308031D8D2DAD
:100B1800952D720871047004031D932D942DAB2D2F
:100B2800952D0030F0000030F1000030F200032E67
:100B3800032EAB2D0130F5007508F30701300310C3
:100B4800F20CF10CF00CFF3E031DA32DAB2DFE3073
:100B58007205031DB02DB12D9E2DC92DC92D013053
:100B6800F5007508F3070130F0070030031801306D
:100B7800F107003003180130F20701300310F20CBE
:100B8800F10CF00CFF3E031DC22DFF307205031D52
:100B9800CE2DCF2DB32DDC2DDC2D0130F30201300D
:100BA8000310F00DF10DF20DFF3E031DD42DDC2DC9
:100BB800F11FDF2DE02DD12D7318E32DE42DEA2D43
:100BC800FF30F0057F30F105FF30F2050310F30C1C
:100BD8007308F500F601F70110300310F50DF60D56
:100BE800F70DFF3E031DF12D7508F0047608F1049A
:100BF8007708F2047408031D022E032EF21708006A
:100C080083120313A8002108A601A6072008A5013E
:100C1800A5070E2E2308F701F7072208F601F607A5
:100C28002608F901F9072508F801F8070A128A11B8
:100C3800ED240A128A11770883120313A601A60766
:100C48007608A501A5070130A4002408A8072608EE
:100C58002504031D302E312E0E2E322E2808840036
:100C6800831380010130A802392E2308F101F1070E
:100C78002208F001F0072108F301F3072008F20128
:100C8800F2070A128A1119240A128A1170088312AB
:100C98000313A4002408A7002308F701F707220874
:100CA800F601F6072108F901F9072008F801F80705
:100CB8000A128A11ED240A128A1177088312031383
:100CC800A101A1077608A001A0070A302702031C8A
:100CD8006E2E6F2E732E0730A4002408A70730301D
:100CE800A4002408A7072708A400280884002408CB
:100CF800831380000130A80221082004031D852EDB
:100D0800862E392E872E08007008F4007108F50029
:100D18007208F6000310750D760DF7007708FD00D0
:100D2800FD08031D982E992EA32E0030F3000030E5
:100D3800F2000030F1000030F0002B2F2B2F70084C
:100D4800F4007108F5007208F60017300310F60C6D
:100D5800F50CF40CFF3E031DAA2E7408F700770863
:100D6800F800F117FF30F005FF30F1050030F2050B
:100D78007008F9007108FA007208FB00FC018E3057
:100D8800FD02FD1FC82EC92EEE2E7D08803A8F3E2B
:100D98000318CF2ED02EDB2E0030F3000030F200E7
:100DA8000030F1000030F0002B2F2B2FDB2E01300C
:100DB8000310FC0CFB0CFA0CF90CFF3E031DDC2E97
:100DC8000130F4007408FD07031DEB2EEC2EDB2E1A
:100DD800122F122F18307D02031CF32EF42E0B2F26
:100DE8000030F3000030F2000030F1000030F00075
:100DF8002B2F2B2F0B2F0130F4000310F90DFA0DB8
:100E0800FB0DFC0DF40B012F0130FD020B2FFD082B
:100E1800031D0F2F102FFF2E122F122F7808031DDE
:100E2800162F222FF909FA09FB09FC09F90A0319F7
:100E3800FA0A0319FB0A0319FC0A222F7C08F3009B
:100E48007B08F2007A08F1007908F0002B2F0800DF
:100E58000A128A11EC220A128A110A128A113B25F7
:100E68000A128A11F60101300A128A11A4240A1200
:100E78008A111030F6008030F7000A128A11812397
:100E88000A128A11472F00300A128A11DC230A122B
:100E98008A11750883120313BF01BF077408BE01C6
:100EA800BE073F08AA01AA073E08A901A9070A30F8
:100EB800AB000030AC003A300A128A11AC230A1297
:100EC8008A11F60102300A128A11A4240A128A1120
:100ED8003A30F6000030F7000A128A1181230A120C
:100EE8008A110130F6000430F700831203133F081B
:100EF800F101F1073E08F001F0070530F20000307B
:100F0800F3000A128A1157230A128A117108F9018B
:100F1800F9077008F801F8070A128A11ED240A1275
:100F28008A11770883120313A101A1077608A0018B
:100F3800A0070A128A111B230A128A1183120313AB
:100F48002008B5002108B6002208B7003508F000CF
:100F58003608F1003708F2000A128A1188260A12A8
:100F68008A11710883120313AA01AA077008A9013C
:100F7800A9070A30AB000030AC003A300A128A11D7
:100F8800AC230A128A11063083120313B00030080A
:100F9800F60002300A128A11A4240A128A113A3081
:100FA800F6000030F7000A128A1181230A128A110A
:100FB8001A30F6008030F7000A128A1181230A12CB
:100FC8008A11C8300A128A1136230A128A11F601C8
:100FD80002300A128A11A4240A128A110130F6007A
:100FE8008030F7000A128A1181230A128A11472FCA
:080FF800472F0A128A1100289C
:00000001FF
