:060000000A128A11122809
:10000800FE00030EF4000408F5000A08F600831247
:1000180003137F08F7000A128A1183280A128A112B
:10002800A028FF308316031386008312031386016A
:100038008316031388018312031388010A128A1195
:10004800A4200A128A112828831203130814643082
:100058000A128A113F200A128A1183120313081008
:1000680064300A128A113F200A128A112828282887
:100078000A128A11122883120313A1000430A00067
:100088002008A2005330A0002008A3004C284C28C8
:100098000130A302031D512852284C28532801304F
:1000A800A202031D5828592846285A280130A102BF
:1000B800031D5F286028422861280800F1000430E9
:1000C800F0007008F2005330F0007008F3006D285B
:1000D8006D280130F302031D722873286D287428D7
:1000E8000130F202031D79287A2867287B2801301D
:1000F800F102031D802881286328822808008B13B9
:100108008B1C8728882894288B10881464300A123E
:100118008A1162200A128A11831203138810942804
:100128008B177708FF0076088A0075088400740E1C
:100138008300FE0E7E0E090083010A128A1115281B
:080148008B170B168B10080049
:00000001FF
