:060000000A128A11BD2F57
:100F7A00F001F101F201F30183010A128A11C52F6E
:100F8A000F30831603138700831203138701831616
:100F9A0003138801831203138801D32F871DD62FC9
:100FAA00D72FE52FD92FD92F8719DC2FDD2FD92F4E
:100FBA00DE2F0130F0070318F10A0030F107D32FB2
:100FCA00013070067104031DEB2FEC2FEE2F08146D
:100FDA00D32F033070067104031DF42FF52FD32F7E
:100FEA00F001F1010810D32FD32FD32FD32FD32FF2
:060FFA000A128A11002812
:00000001FF
