:060000000A128A11632DB3
:100AC600A801A001A101A201A301A40183010A12A8
:100AD6008A115F2FF60083120313281476080A1270
:100AE6008A11A9250A128A11080083120313881590
:100AF6000330F1009730F000F00B7F2DF10B7F2DC6
:100B0600842D8312031388110800F1000430F000CD
:100B16007008F2005330F0007008F300932D932D07
:100B26000130F302031D982D992D932D9A2D013036
:100B3600F202031D9F2DA02D8D2DA12D0130F10256
:100B4600031DA62DA72D892DA82D0800F5007508D3
:100B5600F2007208F4007508F039F2007208F50028
:100B66008312031308080F39750488002818BC2D52
:100B7600BD2DBF2D0811C12D0815C12D0A128A11D0
:100B860078250A128A117408F2007208F5007508B1
:100B9600F20003300310F20DFF3E031DCD2D0310AE
:100BA600720DF3007308F5007508F039F20072084B
:100BB600F5008312031308080F39750488002818F6
:100BC600E52DE62DE82D0811EA2D0815EA2D0A1265
:100BD6008A1178250A128A110800F7002A2E831234
:100BE600031328107608803E0A128A11A9250A12D4
:100BF6008A11382E8312031328107608C03E0A1273
:100C06008A11A9250A128A11382E83120313281075
:100C16007608943E0A128A11A9250A128A11382EDC
:100C26008312031328107608D43E0A128A11A925C6
:100C36000A128A11382E8312031328107608D43E1E
:100C46000A128A11A9250A128A11382E382E770817
:100C5600013A0319F22D033A0319FD2D013A03193E
:100C6600082E073A0319132E1E2E080083160313A7
:100C760088018230F700DD30F600F60B402EF70BC8
:100C8600402E452E831203130811281088110808D8
:100C96000F39303888000A128A1178250A128A110B
:100CA6008312031308080F39203888000A128A11A4
:100CB60078250A128A1128300A128A11A9250A12E1
:100CC6008A1108300A128A11A9250A128A110130DE
:100CD6000A128A11A9250A128A1106300A128A11E5
:100CE600A9250A128A1180300A128A11A9250A1228
:100CF6008A110C300A128A11A9250A128A110800D3
:100D060083120313A601FC1F892E8A2E932EFB093C
:100D1600FC09FB0A0319FC0AA6010314A60D932E6F
:100D2600FA1F962E972E9D2EF909FA09F90A03192C
:100D3600FA0A9D2E7A0879040319A22EA32ED92E1B
:100D4600A5010314A50DB32E01300310F90DFA0DFC
:100D5600FF3E031DA82E0130FD007D08A507B32E1A
:100D6600FA1FB62EB72EA72EB92EB92E7A087C02F8
:100D7600031DBF2E79087B02031CC22EC32ECA2E6A
:100D86007908FB027A08031CFC03FC02CA2E013018
:100D96000310FA0CF90CFF3E031DCB2E0130A50201
:100DA600031DD62ED72EB92ED92ED92E2608031DD1
:100DB600DD2EE32EFB09FC09FB0A0319FC0AE32ED0
:100DC6007C08FA01FA077B08F901F907EA2E080000
:100DD600F601F11FEF2EF02EF92EF009F109F00AB7
:100DE6000319F10AF6010314F60DF92EF31FFC2E72
:100DF600FD2E072FF209F309F20A0319F30A01304F
:100E0600F4007408F606072FF701F801710870045C
:100E160003190E2F0F2F4D2FF5010314F50D1F2F5C
:100E260001300310F00DF10DFF3E031D142F0130AC
:100E3600F4007408F5071F2FF11F222F232F132FFD
:100E4600252F252F01300310F70DF80DFF3E031D4A
:100E5600262F71087302031D322F70087202031CBD
:100E6600352F362F3E2F7008F2027108031CF3034C
:100E7600F30277143E2F01300310F10CF00CFF3E05
:100E8600031D3F2F0130F502031D4A2F4B2F252F3F
:100E96004D2F4D2F7608031D512F572FF709F809AF
:100EA600F70A0319F80A572F7808F101F1077708AE
:100EB600F001F0075E2F08008312031308140A12CC
:100EC6008A1139260A128A116430F0000030F100C6
:100ED600831203132108F301F3072008F201F20736
:100EE6000A128A11EB260A128A117008831203135A
:100EF600A7002708A4000A30F9000030FA000A30DB
:100F0600F0000030F1002108F301F3072008F20198
:100F1600F2070A128A11EB260A128A117108FC01DD
:100F2600FC077008FB01FB070A128A1183260A12C6
:100F36008A11790883120313A7002708A3000A3031
:100F4600F9000030FA002108FC01FC072008FB012B
:100F5600FB070A128A1183260A128A11790883125C
:100F66000313A7002708A200F60101300A128A110E
:100F7600F0250A128A11831203132408303E0A123E
:100F86008A116D250A128A11831203132308303E33
:100F96000A128A116D250A128A1183120313220876
:100FA600303E0A128A116D250A128A110130831207
:100FB6000313A0070318A10A0030A107FF300A1285
:100FC6008A1188250A128A11831203132108803A8E
:100FD600FF0083307F02031DF22FE8302002031C3E
:100FE600F52FF62F672F83120313A001A101672F98
:0A0FF600672F672F0A128A110028E6
:00000001FF
