:100000000A128A114C2E00308A000408840A8207E2
:100010000034733465347234693461346C342034A0
:10002000643461347434613400347334653472344C
:08003000693461346C340034C2
:100C9800FA0183010A128A112F2F7A1001300A12E1
:100CA8008A1171270A128A110800F6007A14760848
:100CB8000A128A1171270A128A110800F000642E9C
:100CC800831203130C1E692E6A2E642E7008990075
:100CD80008006E2E831203138C1E732E742E6E2E34
:100CE800981C772E782E7A2E181218161A080800D3
:100CF8008312031388150330F1009730F000F00BCE
:100D0800832EF10B832E882E83120313881108007B
:100D18008316031318131812181583120313981740
:100D280018131816700883160313990083120313F7
:100D38008C12831603139816831203130C1283164E
:100D480003130C128C120800F7007A14BB2E7708D4
:100D580084000A128A1103200A128A110A128A11BF
:100D680071270A128A110130F6007608F70777080A
:100D780084000A128A1103200A128A110038031DFE
:100D8800C62EC72EAB2E0800F300E32E730884008E
:100D98000A128A1103200A128A110A128A1162267B
:100DA8000A128A110130F1007108F3071430F200B9
:100DB8007930F100F10BDE2EF20BDE2EE32E7308F4
:100DC80084000A128A1103200A128A110038031DAE
:100DD800EE2EEF2ECA2E0800F700202F7A10760884
:100DE800803E0A128A1171270A128A112E2F7A1050
:100DF8007608C03E0A128A1171270A128A112E2F0C
:100E08007A107608943E0A128A1171270A128A11FA
:100E18002E2F7A107608D43E0A128A1171270A12E8
:100E28008A112E2F7A107608D43E0A128A11712759
:100E38000A128A112E2F2E2F7708013A0319F22E43
:100E4800033A0319FB2E013A0319042F073A031931
:100E58000D2F162F08001930F0000030F1000A128B
:100E68008A118C260A128A110A128A11B6270A12C6
:100E78008A110A128A1151260A128A1101300A129D
:100E88008A11A8260A128A110D300A128A11C82658
:100E98000A128A110A128A116D260A128A11F8009A
:100EA8007808F90079080A128A1162260A128A114A
:100EB8000310003003180130F60002300A128A11BC
:100EC800F0260A128A1179080A128A1159260A127A
:100ED8008A114E2F0A128A110028F5007508F200AF
:100EE8007208F4007508F039F2007208F5008312F0
:100EF800031308080F39750488007A18842F852F82
:100F0800872F0811882F08150A128A117C260A12C1
:100F18008A117408F2007208F5007508F2000330AF
:100F28000310F20DFF3E031D942F0310720DF30002
:100F38007308F5007508F039F2007208F50083129D
:100F4800031308080F39750488007A18AC2FAD2FE1
:100F5800AF2F0811B02F08150A128A117C260A1221
:100F68008A1108008316031388018230F700DD30E8
:100F7800F600F60BBD2FF70BBD2FC22F83120313FC
:100F880008117A10881108080F39303888000A12B9
:100F98008A117C260A128A118312031308080F3952
:100FA800203888000A128A117C260A128A112830F1
:100FB8000A128A1171270A128A1108300A128A1134
:100FC80071270A128A1101300A128A1171270A122E
:100FD8008A1106300A128A1171270A128A11803082
:100FE8000A128A1171270A128A110C300A128A1100
:080FF80071270A128A1108009A
:00000001FF
