:060000000A128A11A22F72
:100F440083010A128A11DF2F0030F6000030F70007
:100F5400B72F62300A128A11C2270A128A1101308D
:100F6400F6070318F70A0030F70775087702031D20
:100F7400BD2F74087602031CC02FC12FAB2F0800AD
:100F8400F1000430F0007008F2005330F0007008F3
:100F9400F300CC2F0130F302031DD12FD22FCC2F1D
:100FA4000130F202031DD72FD82FC72F0130F102D1
:100FB400031DDD2FDE2FC32F0800831603138801C2
:100FC400831203138801FF3088000130F4000030DD
:100FD400F5000A128A11A6270A128A118312031332
:100FE40088010130F4000030F5000A128A11A627A6
:0C0FF4000A128A11E52F0A128A11002847
:00000001FF
